:100000000C9493030C94DA030C94DA030C94DA0343
:100010000C94DA030C94DA030C94DA030C94DA03EC
:100020000C94DA030C94DA030C94FC2A0C94CE2B77
:100030000C9457210C94DA030C94DA030C94DA0331
:100040000C94DA030C94DA030C94DA030C94DA03BC
:100050000C94DA030C94BF210C94DA030C94DA03A9
:100060000C94DA030C94DA030C94DA030C94DA039C
:100070000C94DA030C94DA030C94DA030C94DA038C
:100080000C94DA030C94DA030C94DA030C94DA037C
:100090000C94DA030C94DA030C94DA030C94DA036C
:1000A0000C94DA030C94DA030C94DA03B706BC065A
:1000B000C606BA06BF06C406C20669076B077607FE
:1000C0006D076F0771077307750778077A077C0755
:1000D00087077E0780078207840786078907281716
:1000E0002817621762179717B71724196019F9179D
:1000F0006019A918A9181C19601960195B19B6189C
:10010000B618B618B618B618B618B618B618B6187F
:10011000B618B618B618B618B618B618B618C8185D
:10012000D518DC18E318ED18EF19EF19011A011AA8
:10013000F819011A011A011AEF19EF19FD19011A1C
:10014000011AFD193B2C622C542D622C542DAE2C1F
:10015000D12C542D272D362D07634236B79BD8A7B7
:100160001A39685618AEBAAB558C1D3CB7CC5763DC
:10017000BD6DEDFD753EF6177231BF000000803F8A
:1001800005A84CCDB2D44EB93836A9020C50B9915D
:100190008688083CA6AAAA2ABE000000803F657295
:1001A000676F646F785F657A2F31613138613064D1
:1001B00030316233666462656436356461204020A4
:1001C000302E352E3135362D31312D6738343761AB
:1001D0006465006572676F646F785F657A2F31615F
:1001E000313861306430316233666462656436355B
:1001F0006461204020302E352E3135362D31312DA1
:1002000067383437616465000000F0A12E002B00D0
:100210000151E100E00000001E00140004001D6117
:10022000E2002F021F001A0016001B003A004C00CB
:1002300020000800070006003B002A0021001500EE
:10024000090019003C002F00220017000A000500D9
:100250000000E300290052000000510000002602C7
:100260003500500000004F000000270223001C0052
:100270000B00110000006500240018000D001000A4
:100280004300300025000C000E00360044002C0016
:10029000260012000F003700450028002700130039
:1002A00033003861E60030022D0031003441E500B2
:1002B000E40000002900010001000100010000002D
:1002C0003A001E0220022202010001003B001F0230
:1002D00021022302010001003C002F0226022F0010
:1002E000010001003D003002270230000100010042
:1002F0003E0031023500350200000100010001001E
:1003000000000100000001000100010000000100E8
:10031000000001003F004A014A0001000000010006
:1003200040004B005000010001000100410052005C
:10033000510001000100010042004E004F00010089
:100340000100010043004D114D00010001000100BA
:100350004400450001000100010000000000000011
:10036000000000002A2B2800000000000000000010
:100370000000000000000029000000002C1E3420B6
:10038000212224342627252E362D3738271E1F20DC
:100390002122232425263333362E37381F04050621
:1003A0000708090A0B0C0D0E0F1011121314151665
:1003B0001718191A1B1C1D2F3130232D3504050663
:1003C0000708090A0B0C0D0E0F1011121314151645
:1003D0001718191A1B1C1D2F3130354C0000000056
:1003E000000000000000000000000000000000000D
:1003F00000000000000000000000000000010101FA
:1004000001010100010101010000000000000000E5
:1004100000000000000001000100010101010101D4
:1004200001010101010101010101010101010101BC
:1004300001010101010101000000010100000000B3
:1004400000000000000000000000000000000000AC
:100450000000000000000001010101006801F0003F
:10046000B40078005A007F3F1F643214643214785D
:100470003C1E1E140A0500000000000101010101DC
:10048000010101010202020202020202020303034D
:10049000030303030304040404040405050505051C
:1004A00006060606060707070708080808090909D7
:1004B0000A0A0A0A0B0B0B0C0C0C0D0D0D0E0E0F7D
:1004C0000F0F101011111112121313141415151609
:1004D000161717181819191A1A1B1C1C1D1D1E1F78
:1004E0001F20202122222324252526272728292AC8
:1004F0002B2B2C2D2E2F2F303132333435363637EF
:1005000038393A3B3C3D3E3F4041424344464748F0
:10051000494A4B4C4D4F50515253555657585A5BC0
:100520005C5E5F606263646667696A6C6D6E707161
:1005300073747678797B7C7E8081838486888A8BCD
:100540008D8F91929496989A9B9D9FA1A3A5A7A900
:10055000ABADAFB1B3B5B7B9BBBDBFC1C4C6C8CAF7
:10056000CCCFD1D3D6D8DADCDFE1E4E6E8EBEDF0AE
:10057000F2F5F7FAFCFF16034500720067006F0002
:1005800044006F007800200045005A000000160368
:100590004500720067006F0044006F007800200083
:1005A00045005A0000000403090409026D0004011B
:1005B00000A0FA0904000001030101000921110152
:1005C00000012240000705810308000A0904010018
:1005D0000103010200092111010001224D0007055C
:1005E000820308000A090402000103000000092137
:1005F000110100012236000705830308000A0904DF
:10060000030001030000000921110100012239004B
:10061000070584032000011201100100000008ED0D
:10062000FE071301000102000105010906A10105F1
:100630000719E029E71500250195087501810205D4
:100640000819012905950575019102950175039118
:10065000010507190029F71500250195F875018195
:1006600002C005010980A1018502160100260300D0
:100670001A81002A8300751095018100C0050C09BC
:1006800001A1018503160100269C021A01002A9C83
:1006900002751095018100C005010902A10109013F
:1006A000A100050919012905150025019505750108
:1006B0008102950175038101050109300931158118
:1006C000257F95027508810609381581257F9501DA
:1006D00075088106050C0A38021581257F9501757C
:1006E000088106C0C005010906A101050719E02916
:1006F000E7150025019508750181029501750881AE
:1007000001050819012905950575019102950175E5
:100710000391010507190029FF150026FF00950622
:1007200075088100C00011241FBECFEFDAE0DEBFE4
:10073000CDBF04B603FE27C08091BA039091BB03DE
:10074000A091BC03B091BD038730904BA740B04B44
:10075000D1F41092BA031092BB031092BC03109212
:10076000BD0314BE84B7877F84BF0FB6F894A895E5
:1007700080916000886180936000109260000FBEDD
:10078000E0E0FFE3099511E0A0E0B1E0E2E9F2E684
:1007900002C005900D92AC3DB107D9F723E0ACED56
:1007A000B1E001C01D92AA3BB207E1F70E942928DF
:1007B0000C9447310C9400001092B9008AE08093A9
:1007C000B800089594EA9093BC009091BC0097FF04
:1007D000FCCF9091B900987F983021F0903111F0C2
:1007E00081E008958093BB0084E88093BC008091F1
:1007F000BC0087FFFCCF8091B900887F883111F061
:10080000803471F780E0089584E98093BC00809182
:10081000BC0084FDFCCF08958093BB0084E88093E6
:10082000BC008091BC0087FFFCCF9091B900987FFD
:1008300081E0983209F480E0089584E88093BC0058
:100840008091BC0087FFFCCF8091BB00089580B3EE
:100850008C7080BB81B3836F81BB08958091000150
:10086000811115C080E40E94E20380930001811190
:100870000CC082E10E940C0480930001811105C02C
:100880008FEF0E940C04809300010E94040484B145
:10089000807F84B985B1807F85B98AB1837F8AB929
:1008A0008BB1837F8BB93E984698089508950C9438
:1008B00056040E941C06809300010E942E040E9490
:1008C00027042DED31E0E1E3F2E04EE04E0F11920E
:1008D00080E090E0D901A80FB91F1C9201968630E4
:1008E0009105C1F72A5F3F4F4E13F1CF0C94D20907
:1008F0000E941C06809300010E942E040E9427047F
:10090000E1E3F2E08EE08E0F11928E13FDCF089599
:1009100026E0829FC0011124FC01E352FE4F20E03B
:1009200030E080E041E050E09081992319F091504F
:10093000908307C0BA01022E01C0660F0A94EAF73D
:10094000862B2F5F3F4F31962630310569F708958A
:1009500096E0699FB001112420E030E090E04FE084
:10096000FC01022E02C0F595E7950A94E2F7E0FF3C
:1009700006C0F901E60FF71FE352FE4F40832F5FD9
:100980003F4F2630310561F70895AF92BF92CF9265
:10099000DF92EF92FF920F931F93CF93DF9380919B
:1009A0000001882379F08091DC018F5F8093DC0166
:1009B000811108C00E941C0680930001811102C0B1
:1009C0000E94AE0581E3E82E82E0F82E00E010E000
:1009D000CC24C394D12CAA24A394C02F0730110592
:1009E00000F58091000181113CC080E40E94E20387
:1009F00080930001811112C082E10E940C04809357
:100A0000000181110BC0C601002E01C0880F0A949D
:100A1000EAF780950E940C04809300010E94040470
:100A200020C00A30A1F028F4083059F0093061F0F4
:100A300005C00C3089F070F00D3089F0209A2898AC
:100A400010C0219A29980DC0229A2A980AC0239A88
:100A50002B9807C0529A01C0539A5B9802C03E9AE5
:100A6000469880EA8A95F1F78C2F0E948804D82F47
:100A70000730110518F580910001811144C080E410
:100A80000E94E20380930001882311F0B12C12C070
:100A900083E10E940C04809300018111F7CF81E46F
:100AA0000E94E203809300018111F0CF0E941D0497
:100AB000B82EB0940E9404049B2D26C08FB1817083
:100AC0008A25799902C092E001C090E0892B7C9937
:100AD00002C094E001C090E0982B7D9902C038E0FC
:100AE00001C030E0932B7E9902C020E101C020E0DC
:100AF000922B2FB12095221F2227221F2295220FF1
:100B0000207E922B01C090E0F70180819D23D0953B
:100B1000D823D92B6C2F8D270E94A804F701D193DD
:100B20007F010E942E040F5F1F4F0E30110509F048
:100B300054CF0E94D40981E0DF91CF911F910F9192
:100B4000FF90EF90DF90CF90BF90AF900895E82F87
:100B5000F0E0EF5CFD4F80810895089556985E980F
:100B600025982D9826982E9827982F988FEF90E00B
:100B7000909389008093880090938B0080938A00E3
:100B800090938D0080938C00259A2D9A2FEF80E70B
:100B900092E0215080409040E1F700C00000269A8A
:100BA0002E9A2FEF80E792E0215080409040E1F7AD
:100BB00000C00000279A2F9A2FEF80E792E0215083
:100BC00080409040E1F700C0000025982D982FEF5D
:100BD00080E792E0215080409040E1F700C00000A3
:100BE00026982E982FEF80E792E021508040904089
:100BF000E1F700C0000027982F9856985E98259836
:100C00002D9826982E9827982F98089589EA8093F2
:100C1000800089E08093810024982C983F988AB1C5
:100C20008F7C8AB96E98479A8BB180638BB9769A1C
:100C30000E94AE050C94780680E2809300018091BA
:100C40003F0281110EC00E94DC0381E080933F02CD
:100C50002FEF83ED90E3215080409040E1F700C0FA
:100C6000000080E40E94E2038093000181112EC005
:100C70000E940C0480930001811128C00E940C0482
:100C800080930001811122C08FE30E940C048093A5
:100C9000000181111BC00E94040480E40E94E20351
:100CA00080930001811112C08CE00E940C0480939B
:100CB000000181110BC00E940C048093000181117E
:100CC00005C08FE30E940C04809300010E9404047D
:100CD000809100010895611108C0FC018281882380
:100CE00021F083ED91E00E94CF0980E090E008952B
:100CF0000895FB018C3D2CE5920769F08D3D2CE5B4
:100D0000920789F08B3D9C45B1F482818823A1F044
:100D10000E9459200EC08281882371F08EE991E0F3
:100D20000E94CF0906C08281882331F081E00E94B1
:100D3000F80F80E0089581E00895CF92DF92EF925E
:100D4000FF926B017C010E94092056985E982598BD
:100D50002D9826982E9827982F9890E0FC0131978F
:100D6000E730F105A8F4EA5AFF4F0C94F930259AC0
:100D70002D9A0EC0259A2D9A269A2E9A09C0259A48
:100D80002D9A04C0259A2D9A269A2E9A279A2F9A40
:100D9000C701B601FF90EF90DF90CF90089581E0FA
:100DA00008950C9479060E94DD192FEF84E39CE0EE
:100DB000215080409040E1F700C000000C94E521F4
:100DC000FF920F931F93CF93DF938C01FC01C0819F
:100DD000D18180919102811113C08281882349F0D1
:100DE000CE010E94FF1EF82E682FCE010E94A21E87
:100DF00004C0CE010E94D21EF82EBE018F2D04C069
:100E0000CE010E94FF1EBE010E94E909EC01B8015B
:100E10000E94D106882309F462C2B801CE010E9463
:100E2000450C882309F45BC2B801CE010E94940CE2
:100E3000882309F454C2CA3CFCE5DF0741F4F801F9
:100E40008281882309F44BC20E94C30F48C2CB3C65
:100E50008CE5D80708F004C1C33C9CE5D90741F4F0
:100E6000F8018281882309F43AC20E94861037C2B1
:100E7000C43CECE5DE0708F0ACC0C531FCE5DF079B
:100E800008F057C0C2308CE5D80708F47BC0F801E1
:100E90008281882309F46EC00E947A20811102C0E9
:100EA0000E9459200E948D2090E09093AC03809383
:100EB000AB03FE01E350FC45E231F10530F4E35AA7
:100EC000FF4F8091AB030C94F9308091AB038160AC
:100ED00027C0826025C0846023C0806121C08062F9
:100EE0001FC080641DC080681BC08460886018C0FB
:100EF0008E7F16C08D7F14C08B7F12C08F7E10C076
:100F00008F7D0EC08F7B0CC08F770AC08B7F877F51
:100F100007C087FB222720F991E0922790FB87F9F1
:100F20008093AB038091AB030E9491200E94DD1956
:100F3000D6C1C531DC45C9F40E94D01F282FF80165
:100F4000828140910301509104018823B9F12A7AEA
:100F500091E009F490E09093400291112DC069E274
:100F6000CA010E94F2200E949D1F81E080934502E9
:100F700080934602C801DF91CF911F910F91FF909E
:100F80000C94CF06C1159CE5D90741F4F801828184
:100F9000882309F4A4C10E94D306A1C1C130DC4555
:100FA00021F7F8018281882309F499C180912F03E8
:100FB000816080932F0393C165E3D2CF809140027B
:100FC000811102C069E201C065E3CA010E94FD20EF
:100FD000CACFC63C8CE5D80741F4F801828188234A
:100FE00009F47DC10E94680F7AC1C73C9CE5D9070E
:100FF000E0F4C43CECE5DE0741F4F801828188238B
:1010000009F46DC10E9473106AC1C53CDC4509F04A
:10101000ACCFF8018281882309F461C10E94D01FFE
:10102000827281F30E947D105AC1F8018281C83C0E
:10103000FCE5DF0731F4882309F451C10E949F0FBA
:101040004EC1C93CDC4530F4882309F448C10E94F4
:10105000800F45C1882309F442C10E94B10F3FC1EE
:10106000C13DECE5DE07C1F4F8018281882309F473
:1010700036C10E943E0E653171058105910540F033
:101080000E943E0E673171058105910508F4BACFC3
:1010900085E10E94F80F23C1C23DFCE5DF0708F09F
:1010A0007AC0CD3C8CE5D807B1F4F8018281882361
:1010B00009F415C10E943E0E62307105810591054B
:1010C00040F00E943E0E653071058105910508F4DF
:1010D00099CF82E0DECFCE3C9CE5D907B8F4CB3C7B
:1010E000ECE5DE0741F4F8018281882309F4F7C0BA
:1010F0000E94DE0FF4C0CC3CDC4509F036CFF8018D
:101100008281882309F4EBC081E0C3CFF80182819A
:10111000CF3CFCE5DF07A1F4882309F4E0C00E947E
:101120003E0E693071058105910540F00E943E0E2A
:101130006E3071058105910508F464CF89E0A9CF6F
:10114000C03DDC45A0F4882309F4C9C00E943E0ECE
:10115000663071058105910540F00E943E0E6830B1
:1011600071058105910508F44DCF86E092CF882363
:1011700009F4B5C00E943E0E6F30710581059105DE
:1011800040F00E943E0E643171058105910508F41E
:1011900039CF8FE07ECFC43DECE5DE0761F5F80185
:1011A0008281882351F0109245020E9489219093F8
:1011B00042028093410282E03DC00E94D01F85FF21
:1011C00005C081E0809345028093460280914502EC
:1011D00081110FC080914102909142020E9495219D
:1011E000883C910530F486E20E946F1586E20E94E9
:1011F0007E1682E030C0C53DFCE5DF0778F1C83DD2
:10120000ECE5DE0709F44DC0C93DFCE5DF0709F454
:101210004EC0C53DDC4509F0A8CEF8018281882387
:1012200061F0109246020E948921909344028093BB
:10123000430280E20E94DD1652C00E94D01F81FF4F
:1012400005C081E08093450280934602809146026A
:101250008823A9F180E20E94E41641C0C23D8CE5DA
:10126000D80731F4F80182818823C9F188E111CFD0
:10127000C33DDC4509F079CEF8018281882379F1FC
:101280000E943E0E693171058105910540F00E9472
:101290003E0E623271058105910508F4B3CE89E1F5
:1012A000F8CEF80182818823D1F080E005C0F801F2
:1012B00082818823A1F082E00E94BF2810C0809123
:1012C0004302909144020E949521883C910510F6BA
:1012D00087E20E946F1587E20E947E16BBCF80E0F6
:1012E000DF91CF911F910F91FF900895CF93282FF9
:1012F00030E0F901E45AFC4FC491F901E452FC4F8B
:101300002491222359F081EE0E946F158C2F0E94A8
:101310006F158C2F0E947E1681EE04C08C2F0E94C8
:101320006F158C2FCF910C947E160F931F93CF9334
:10133000DF93EC01062FFE018491882359F19E0171
:101340002F5F3F4F813041F4E901F9011491812F62
:101350000E946F15812F0DC0823031F4E901F9012F
:1013600084910E946F150AC0833031F4E901F901BC
:1013700084910E947E1602C00E9476092196802FD9
:101380008823C9F2EFE9FFE03197F1F700C00000D0
:101390008150F6CFDF91CF911F910F91089560E0BA
:1013A0000C9495090C9406060C945704282F882356
:1013B00039F090E02A3010F44D960895069708957C
:1013C00087E290E0089508950C94E3090C94E409F1
:1013D000089596E0799FF001112494E5899FE00D2E
:1013E000F11D1124E60FF11DEE0FFF1FE45FFD4F0D
:1013F000859194910895880F991FFC01E85FFD4F36
:10140000859194910895CF93DF930E94E9090E94FA
:101410009B0BEC01811520E49207B0F5811540E3A8
:10142000940708F0E1C0803E9105D0F4803C91051E
:1014300008F06FC0883A910570F4853A910508F07C
:101440006BC08130910509F472C108F429C1049779
:1014500008F06DC125C18D3B910508F468C020C11D
:101460008F3F910509F048F4803F910508F0B6C020
:10147000883E910508F45BC113C1811550E29507C0
:1014800008F455C19F70ACC0811564E59607D8F487
:10149000C11583E5D80708F0E2C0C11521E5D207E0
:1014A00040F4C11540E5D40708F0A7C0DF70D06A4A
:1014B0003EC1C11552E5D50708F0BBC0DC2FCC27D3
:1014C000C16FD06A34C1811566E5960750F4C11525
:1014D00085E5D80708F0D9C0DC2FCC27C46FD06AC7
:1014E00026C1811528E5920708F4DAC0811549E57F
:1014F000940708F4D0C090568115904208F0D0C0EF
:101500008D2F8F710E94180CDD27D0628F71D82B20
:101510000EC1805C910964C0853A910509F4C3C08D
:10152000863A910509F0C2C0C2E8D0E400C1883A09
:10153000910509F4BEC0893A910509F4BDC08A3A03
:10154000910509F4BCC08B3A910509F4BBC08C3AF3
:10155000910509F4BAC08B3B910509F4B9C08C3BE5
:10156000910509F4B8C08D3A910509F4B7C0803BE4
:10157000910509F4B6C08E3A910509F4B5C08F3AC9
:10158000910509F4B4C0813B910509F4B3C0823BD5
:10159000910509F4B2C0833B910509F4B1C0843BC5
:1015A000910509F4B0C0853B910509F4AFC0863BB5
:1015B000910509F4AEC0873B910509F4ADC0883BA5
:1015C000910509F4ACC0893B910509F4ABC08A3B95
:1015D000910509F4AAC0C0E0D4E4A9C0D065A7C0B1
:1015E0000E94FB09EC01A3C09927D3FF03C0EC01C3
:1015F000D86C9DC0EC01D06C9AC02C2F237081E078
:1016000090E002C0880F991F2A95E2F79C689E011E
:1016100044E0369527954A95E1F72370922BCF70D9
:10162000C695C69560E2C69FE0011124C82BD92B50
:101630007EC02C2F2695269580E2289F90011124AC
:10164000C370DD2781E090E0AC0102C0440F551F5C
:10165000CA95E2F7EA01C22BD32BDC6868C02C2FB5
:101660002695269580E2289F90011124C370DD27DE
:1016700081E090E0AC0102C0440F551FCA95E2F72B
:10168000EA01C22BD32BDA6852C0CF71DD27DC2FE1
:10169000CC27D0624CC0DC2FCC27C06FD06A47C0AB
:1016A000C0E0D0E044C0C1E8D0E441C0C3E8D0E429
:1016B0003EC0C2EED4E43BC0C9EED4E438C0CAEEAA
:1016C000D4E435C0C5EBD4E432C0C6EBD4E42FC0BB
:1016D000C3EBD4E42CC0C4EBD4E429C0C7EBD4E4FE
:1016E00026C0CCECD4E423C0CDECD4E420C0C3E8C5
:1016F000D5E41DC0CAE8D5E41AC0C2E9D5E417C0D4
:10170000C4E9D5E414C0C1E2D6E411C0C3E2D6E412
:101710000EC0C4E2D6E40BC0C5E2D6E408C0C6E2FF
:10172000D6E405C0C7E2D6E402C0CAE2D6E4CE01E0
:10173000DF91CF9108958238910549F1B0F481335A
:10174000910509F458C048F48932910509F44EC056
:101750008A32910509F454C008958533910509F43E
:1017600040C08933910599F00895833E910529F190
:1017700038F4803E910591F0823E9105A1F00895E4
:10178000863E9105F9F0873E910531F1089520914B
:10179000AB0320FD3AC021FD38C008958091AB0312
:1017A00080FD35C032C08091AB0382FF32C0809192
:1017B000AB0384FD30C083EE39C08091AB0382FD62
:1017C00028C0F5CF8091AB0383FF27C08091AB0386
:1017D00084FD21C087EE2AC08091AB0383FD1DC02C
:1017E000F5CF8091AB0385FD1AC01BC08091AB0380
:1017F00085FD17C014C08091AB0386FD14C015C0D1
:101800008091AB0386FD11C00EC080EE0FC089E34E
:101810000DC082EE0BC080E009C086EE07C089E2F1
:1018200005C085E303C08AE201C081E390E008952A
:10183000CF93C82F0E948D2090E09093AC038093AB
:10184000AB0382FF0DC09C2F9871983019F4C77FAD
:10185000C46006C09C2F9471943011F4CB7FC86093
:1018600083FF0DC09C2F9871983119F4C77EC46115
:1018700006C09C2F9471943111F4CB7EC86184FD15
:10188000C77E8C2FCF91089508950F931F93CF9308
:10189000FB012281211102C0C1E041C08C01C09135
:1018A0005402C11125C086319C45B1F70E94440CF9
:1018B00081E0809354020E94892190935302809387
:1018C000520210924702109249021092480210925E
:1018D0004B0210924A0210924D0210924C0210924A
:1018E0004F0210924E02109251021092500217C0F5
:1018F00080915202909153020E949521883C91055B
:1019000058F690914702E92FF0E0EE0FFF1FE85BD9
:10191000FD4F118300839F5F90934702C0E08C2F9F
:10192000CF911F910F910895CF93DF93813020E8DD
:101930009207D0F0FB0122812223B1F0EC018091CB
:101940005502811109C08CE090E00E94FF300E9496
:10195000B80C81E0809355020E94BF0CCE019F77A6
:101960000E94870D0E943B0D81E0DF91CF91089589
:1019700080935602682F8CE090E00C941331E09134
:101980000301F091040180818093600381FF03C013
:1019900081EE0E947E168091600385FF03C085EE74
:1019A0000E947E168091600380FF03C080EE0E943B
:1019B0007E168091600384FF03C084EE0E947E1631
:1019C0008091600382FF03C082EE0E947E168091A8
:1019D000600386FF03C086EE0E947E16809160033E
:1019E00083FF03C083EE0E947E168091600387FF11
:1019F00003C087EE0E947E1680915602823001F16C
:101A0000A8F48823C9F0813079F580EE0E946F1523
:101A100081EE0E946F1588E10E946F1588E10E9497
:101A20007E1681EE0E947E1680EE1CC0843081F00E
:101A30008530D1F486EE01C082EE0E946F1514C08D
:101A400082EE0E946F1587E50E946F1587E50AC038
:101A500086EE0E946F1586EE0E947E1688E10E9437
:101A60006F1588E10E947E168FE39CE90197F1F7DC
:101A700000C00000089580915602813049F030F096
:101A8000823021F0853051F486EE06C082EE04C02B
:101A90008CE20E946F158CE20E947E16809160039A
:101AA00081FF03C081EE0E946F158091600385FF66
:101AB00003C085EE0E946F158091600380FF03C014
:101AC00080EE0E946F158091600384FF03C084EE56
:101AD0000E946F158091600382FF03C082EE0E9416
:101AE0006F158091600386FF03C086EE0E946F151C
:101AF0008091600383FF03C083EE0E946F15809185
:101B0000600387FF03C087EE0C946F150895EF9272
:101B1000FF921F93CF93DF937C01CCE0D0E097013D
:101B20000C2E02C0369527950A94E2F7122F1F70EB
:101B3000812F0E94D6090E946F15812F0E94D6091D
:101B40000E947E162497CC3F8FEFD80741F7DF9194
:101B5000CF911F91FF90EF900895EF92FF920F9316
:101B60001F93CF93DF93E901662309F44BC0242F21
:101B700030E0EFEFF0E0E61BF109B901E69F9001DC
:101B8000E79F300DF69F300D1124232F8B01031B8F
:101B900011095CE3E52EF12CB7010E94D130FB0165
:101BA000BC01069FC001079F900D169F900D112448
:101BB000B7010E94D130E230F105B1F040F4309726
:101BC00079F0319711F5832F242F461B21C0E43083
:101BD000F105A1F068F03597C1F4842F861B18C079
:101BE000832F262F230F14C0862F830FE42F03C0CB
:101BF000E42FE61B842F432F2E2F0AC0842F462F5D
:101C0000430F06C0842F242F03C080E020E040E073
:101C1000E42FF0E0EA58FB4F4491E22FF0E0EA585D
:101C2000FB4F9491E82FF0E0EA58FB4FE491498391
:101C30009883EA83DF91CF911F910F91FF90EF90EE
:101C4000089588E090E00C940731AB01BC0188E076
:101C500090E00C942531E1E6F3E083E0808310927C
:101C600062038FEF828383836091610370916203CB
:101C700080916303909164030C94250E609161033D
:101C800060FF06C066956F7370E080E090E0089595
:101C900060E070E0CB0108958091610380FF06C091
:101CA0006FE070E089E693E00C94AC1380E090E084
:101CB000FC01E759FC4F11821082128204968C338A
:101CC0009105B1F7EDCF20E030E0F901E759FC4F85
:101CD0008183608342832C5F3F4F2C333105A9F70A
:101CE0000C944C0EEF92FF920F931F93CF93DF93C0
:101CF00000D000D0CDB7DEB7009161031091620330
:101D0000209163033091640300936503109366038D
:101D100020936703309368032091610320FF21C063
:101D2000042FF62EE92E182F9E012F5F3F4F0E94A1
:101D3000AD0D8091650310FB87F9809365031695BF
:101D4000809166038078182BE0FA17F910936603E8
:101D5000F0926703009368034B8169818A810E9436
:101D6000630E0F900F900F900F90DF91CF911F9106
:101D70000F91FF90EF9008958F929F92AF92BF9234
:101D8000CF92DF92EF92FF920F931F93CF93DF9347
:101D9000EC01062F142F8091610380FF8CC0982FD7
:101DA0009E77923021F4CE010E94720E5AC0E82F25
:101DB000E695EF739EE39E0F9F73943018F4109195
:101DC00064034FC09AE39E0F9F73993070F4881F8D
:101DD0008827881F90916203292F220FC22FC82BBA
:101DE00097FB992790F9D92F3CC087E28E0F8F730C
:101DF0008A30B8F5F0E07997E0FD02C021E001C03B
:101E00002FEFEE7FE45AFB4F859194916FE070E0E5
:101E10000E94D13026036001279FD00C11244E016F
:101E200088E9881A8EEF980A89E6E82E83E0F82E72
:101E300098E6A92EBB24B394C401B5010E94D13009
:101E40009701412F602F0E94AD0D8C0C9D1C94E0DA
:101E5000E90EF11C85EAE81683E0F80669F70E94AE
:101E60004C0E809161039C2FC0FB87F98093610326
:101E70009695809162038078892BD0FB87F98093B7
:101E80006203009363031093640360916103709194
:101E900062038091630390916403DF91CF911F915E
:101EA0000F91FF90EF90DF90CF90BF90AF909F90F9
:101EB0008F900C94250EDF91CF911F910F91FF9081
:101EC000EF90DF90CF90BF90AF909F908F9008954C
:101ED000E1E6F3E02081221F2227221F30916203D6
:101EE000432F440F842F822B37FB992790F90C96B0
:101EF00068E671E00E94E530438162810C94BC0E7B
:101F000020916103221F2227221F30916203432F59
:101F1000440F842F822B37FB992790F98C30910541
:101F20001CF4845A9E4F01C00C9768E671E00E9431
:101F3000E53040916403609163030C94BC0EE1E6CC
:101F4000F3E08081881F8827881F90916203292FE2
:101F5000220F97FB992790F943816FEF822B0C9406
:101F6000BC0EE1E6F3E08081881F8827881F9091EE
:101F70006203292F220F97FB992790F9438160E094
:101F8000822B0C94BC0E40916403842F90E0843F1C
:101F9000910514F4445F01C04FEF80916103881FE5
:101FA0008827881F90916203292F220F97FB99277A
:101FB00090F960916303822B0C94BC0E40916403F2
:101FC000842F90E00C9714F04C5001C040E08091B9
:101FD0006103881F8827881F90916203292F220F91
:101FE00097FB992790F960916303822B0C94BC0EA8
:101FF0009091610390FF42C09178811102C092607C
:1020000007C0833210F0946403C08F73880F982B3D
:102010009093610360916103709162038091630307
:10202000909164030E94250E80916103982F9E7702
:10203000923019F410926C0210C0982F96959F73ED
:102040002EE3290F2F73273120F491E090936C0237
:1020500004C0995D9F739A3068F3881F8827881F92
:1020600090916203292F220F97FB992790F94091B5
:10207000640360916303822B0C94BC0E08958091DD
:102080002F03816080932F0381E080936D020E9473
:102090007A20811104C00E9459200E942B0E0E94B8
:1020A000210E6093610370936203809363039093A6
:1020B00064036E7761F40E942B0E0E94210E6093E0
:1020C000610370936203809363039093640381E0E0
:1020D00080936C028091610380FF04C086958F73AA
:1020E0000C94F80F08958091610386958F738F5F2C
:1020F000833208F081E00C94F80F8091610386959B
:102100008F73815009F482E20C94F80F809161037F
:10211000982F909590FB80F9809361036091610303
:102120007091620380916303909164030E94250E75
:102130008091610380FF04C086958F730C94F80F23
:1021400010926C022FEF80E792E021508040904087
:10215000E1F700C000000C944C0ECF93C82F809183
:102160006A0290916B020E949521EC2FF0E0EE58EC
:10217000FB4FE491F0E08E179F0708F443C00E94E4
:10218000892190936B0280936A026091690270E0EA
:1021900080E090E00E94D22E20E030E04FE753E450
:1021A0000E94F52D2BED3FE049E450E40E94FB2F07
:1021B0000E9468300E946F2E2BE43AE34EE25FE308
:1021C0000E94882D20EF3BEF48ED52E40E94FB2F48
:1021D0000E94A12E462F80916103881F8827881FA7
:1021E00090916203292F220F97FB992790F9609114
:1021F0006303822B0E94720E8091690290E0019627
:1022000080936902CF910895CF93C82F8091670280
:10221000909168020E949521EC2FF0E0E159FB4F6C
:10222000E491F0E08E179F07E8F00E9489219093D7
:102230006802809367024091640360916303809118
:102240006502909166020E94720E809165029091E3
:102250006602019668E671E00E94D13090936602B2
:1022600080936502CF910895CF92DF92FF920F93F2
:102270001F93CF93DF93F82E8091630290916402B5
:102280000E949521EF2DE695F0E0E459FB4FE49193
:10229000F0E08E179F07E8F10E9489219093640275
:1022A0008093630209E613E0C0E0D0E088E6C82E20
:1022B000DD24D39480916102909162028C0F9D1F66
:1022C000B6010E94D130980140916403609163038C
:1022D0000E94AD0D68960C5F1F4FC83681E0D8078D
:1022E00049F70E944C0E2091610230916202F0FE8B
:1022F0000AC0C9010196BE010E94D13090936202CA
:102300008093610206C0215031093093620220930C
:102310006102DF91CF911F910F91FF90DF90CF90DD
:102320000895AF92BF92CF92DF92EF92FF920F93F8
:102330001F93CF93DF93C82F80FF02C01FEF01C010
:1023400011E080915F02909160020E949521C695F4
:10235000EC2FF0E0E759FB4FE491F0E08E179F0778
:1023600008F466C00E9489219093600280935F0206
:1023700029E6C22E23E0D22E3BE6E32E33E0F32EF5
:10238000C0E0D0E0F70131971082F6011082F7012A
:10239000108294E0A92EB12C00E080915E02800FA3
:1023A00087FD815F082E000C990BC817D907E9F447
:1023B000809164038A9DA0018B9D500D1124559539
:1023C00047955595479580916103881F8827881FF9
:1023D00090916203592F550F97FB992790F9960119
:1023E00060916303852B0E94AD0D010FF1E0AF1AE0
:1023F000B10899F6219684E0C80ED11CE4E0EE0EF7
:10240000F11CCF30D10509F0BDCF0E944C0E809158
:102410005E02113031F4811102C08EE007C081509C
:1024200005C090E00196BE010E94E53080935E02F7
:10243000DF91CF911F910F91FF90EF90DF90CF90A0
:10244000BF90AF9008950F931F93CF93DF93C82F42
:1024500080915C0290915D020E949521EC2FF0E04A
:10246000EA59FB4FE491F0E08E179F0708F464C02F
:102470000E94892190935D0280935C0280E090E04D
:10248000FC01E759FC4F11821082128204968C33B2
:102490009105B1F7C0E0D0E00FE010E0CE01B80147
:1024A0000E94E530FC0180915B02082E000C990B24
:1024B000EE0FFF1FEE0FFF1FC817D907FCF080912A
:1024C0000201082E000C990B8C179D07BCF09F0190
:1024D00027593C4F80916103881F8827881F90915E
:1024E0006203592F550F97FB992790F94091640388
:1024F00060916303852B0E94AD0D05C0E759FC4F29
:102500001182108212822196CF30D10539F60E94B5
:102510004C0E8091010190915B02980F90935B02A9
:1025200020910201280F20930201121614F49E300C
:102530001CF0819580930101DF91CF911F910F9144
:102540000895EF92FF920F931F93CF93DF938091A3
:10255000590290915A020E949521883E9340D0F1F1
:102560000E94892190935A0280935902C091570288
:10257000D09158022196C170DD27D0935802C093A4
:10258000570289E6E82E83E0F82E10E008E7812F55
:102590008695FE01E80FF11DCF0181709927970103
:1025A0004091640360916303FC010E9FC0010F9F83
:1025B000900D11240E94AD0D1F5FF4E0EF0EF11C91
:1025C0001F3029F7DF91CF911F910F91FF90EF906E
:1025D0000C944C0EDF91CF911F910F91FF90EF90D3
:1025E000089580916C02882391F190916103892F65
:1025F00086958F732EE3280F2F73243018F48250A2
:102600000C94AD102AE3280F2F73233018F4865052
:102610000C94041127E3280F2F73263018F48950E7
:102620000C94341121E3280F2F73263018F48F50A7
:102630000C9491112BE2280F2F73233018F485513D
:102640000C9423129E77903311F40C94A1120895E8
:10265000882319F05198599A02C0519A5998509864
:10266000589A95E09A95F1F70000509A589895E09D
:102670009A95F1F70000882311F0519A599885E056
:102680008A95F1F7000008958BB18C7F8BB9509833
:10269000589A5198599A85E08A95F1F70000089563
:1026A0008AB18C7F8AB985E08A95F1F70000519A4A
:1026B000599885E08A95F1F70000509A589885E07E
:1026C0008A95F1F7000008955098589A85E08A9508
:1026D000F1F700005198599A85E08A95F1F70000CA
:1026E0000895CF93DF93D82FC8E08D2F80780E9474
:1026F0002813DD0FC150C9F780E00E94281385E040
:102700008A95F1F7000085E08A95F1F7000080E0F6
:10271000DF91CF9108952BB1342F309523233BB116
:10272000432B3FB7F894FC01680F791FE617F707B2
:1027300089F0819198E04BB9000000C087FF2BB968
:10274000880F000000C000C000C02BB900C09A95DF
:1027500091F7ECCF3FBF0895AF92BF92CF92DF9237
:10276000EF92FF920F931F93CF93DF938C01EB01B6
:10277000CFB6D090BC00F8948091BC008B7F809342
:10278000BC000E9444130E94501384E80E947113FD
:10279000CC0FDD1FCC0FDD1F78015801AC0EBD1E24
:1027A000EA14FB0431F0F70181917F010E9471135B
:1027B000F7CF0E946413CFBED092BC00579A40E876
:1027C000BE01C801DF91CF911F910F91FF90EF9053
:1027D000DF90CF90BF90AF900C948B1390937302C7
:1027E000809372020895E0917202F0917302309723
:1027F00021F00190F081E02D099480E00895E091AE
:102800007202F0917302309721F00280F381E02D83
:1028100009940895E0917202F0917302309721F0CB
:102820000480F581E02D0994089520917002309183
:1028300071028217930771F0909371028093700276
:10284000E0917202F0917302309721F00680F781D7
:10285000E02D0994089520916E0230916F02821745
:10286000930771F090936F0280936E02E091720271
:10287000F0917302309721F00084F185E02D0994E6
:10288000089508950C94411481E008950E948021D8
:102890000E9459040E9407220C943F10CF92DF92AD
:1028A000EF92FF920F931F93CF93DF93CDB7DEB7D5
:1028B0002B970FB6F894DEBF0FBECDBF0E94C504A4
:1028C0000E944414811111C08FEF89838A831B8277
:1028D0000E9489218160782F9D838C8349815A8150
:1028E0006B818D810E94321556C085E7C82E82E02B
:1028F000D82E00E010E0E02E802F0E94A705F60100
:1029000041916F01F42EF82631F40F5F1F4F0E3006
:10291000110589F7D9CF90912F0391FF04C08B87C0
:102920000E94AD058B8520E030E04F2D50E0922FC6
:10293000BA01022E02C0759567950A94E2F760FF0E
:1029400024C02E83EF8221E030E0690102C0CC0C6C
:10295000DD1C9A95E2F790E08C219D21892B09F4EA
:1029600020E028870E9489218160782F9A878987B3
:102970004E815F8168858A850E943215F801EB5887
:10298000FD4F8081C826C08206C02F5F3F4F263092
:10299000310569F6BACF0E949A23109174020E9401
:1029A000F3131817A1F00E94F313809374022B966F
:1029B0000FB6F894DEBF0FBECDBFDF91CF911F9150
:1029C0000F91FF90EF90DF90CF900C94E6092B963B
:1029D0000FB6F894DEBF0FBECDBFDF91CF911F9130
:1029E0000F91FF90EF90DF90CF900895DC0111964A
:1029F0002C9111978C91682F70E041E050E001C05C
:102A0000440F8A95EAF712968C91129730E088234A
:102A100029F0809192028823E9F006C0F901ED5770
:102A2000FD4F90819423B1F086E0829FF001839F57
:102A3000F00D1124E60FF71FEE0FFF1FEB5EFE4FA8
:102A4000808191818D939C93F901ED57FD4F808199
:102A5000482B06C0F901ED57FD4F40958081482372
:102A600040830895CF93DF93CDB7DEB72B970FB692
:102A7000F894DEBF0FBECDBF942F4F83252F58870C
:102A800069877A878B874A855B85452B21F02F3FA5
:102A900009F59F3FF9F4DE01119686E0FD011192E0
:102AA0008A95E9F785E0FE01379601900D928A95A7
:102AB000E1F749815A816B817C818D819E810E94E1
:102AC000751C2B960FB6F894DEBF0FBECDBFDF91FD
:102AD000CF910895CE0107960E94F614DCCFCF93D4
:102AE000DF931F92CDB7DEB7882309F403C1682FA7
:102AF0008238C1F40E94F31381FDFCC069E3809128
:102B00000301909104010E94F2200E949D1F2FEF6B
:102B100081EE94E0215080409040E1F700C0000039
:102B200069E319C0833811F50E94F31380FDE2C0F8
:102B300063E580910301909104010E94F2200E94BC
:102B40009D1F2FEF81EE94E0215080409040E1F7EF
:102B500000C0000063E580910301909104010E9490
:102B6000FD200F90DF91CF910C949D1F8438C1F40C
:102B70000E94F31382FDBEC067E48091030190912F
:102B800004010E94F2200E949D1F2FEF81EE94E02D
:102B9000215080409040E1F700C0000067E4DBCFA7
:102BA0008CEF860F813A70F4862F69830E94C325CB
:102BB000698181119FC080910301909104010E945D
:102BC000F220CFCF80E2860F883048F4677081E032
:102BD00001C0880F6A95EAF70E94D31FC2CF8BE528
:102BE000860F833088F4653A29F0663A31F083E83D
:102BF00090E005C081E890E002C082E890E00F908C
:102C0000DF91CF910C94151488E5860F853108F07B
:102C100071C0683A61F1693A69F16A3A71F16B3AE7
:102C200079F16C3A81F16B3B89F16C3B91F16D3A32
:102C300099F1603BA1F16E3AA9F16F3AB1F1613BB4
:102C4000B9F1623BC1F1633BC9F1643BD1F1653B32
:102C5000D9F1663BE1F1673BE9F1683BF1F1693B92
:102C6000F9F16A3B09F43FC080E090E03EC082EE9B
:102C700090E03BC089EE90E038C08AEE90E035C02D
:102C800085EB90E032C086EB90E02FC083EB90E0C4
:102C90002CC084EB90E029C087EB90E026C08CEC40
:102CA00090E023C08DEC90E020C083E891E01DC04F
:102CB0008AE891E01AC082E991E017C084E991E0C6
:102CC00014C081E292E011C083E292E00EC084E27F
:102CD00092E00BC085E292E008C086E292E005C077
:102CE00087E292E002C08AE292E00F90DF91CF91FA
:102CF0000C942B140F90DF91CF910895882309F441
:102D00005BC0682F823879F40E94F31381FF54C0AE
:102D100069E380910301909104010E94F2200E94D6
:102D20009D1F69E310C08338B1F40E94F31380FF44
:102D300043C063E580910301909104010E94F22059
:102D40000E949D1F63E580910301909104010E9400
:102D5000FD200C949D1F843879F40E94F31382FFA8
:102D60002BC067E480910301909104010E94F2203E
:102D70000E949D1F67E4E7CF8CEF860F813A18F31E
:102D800080E2860F883048F4677081E001C0880FC8
:102D90006A95EAF70E94D91FDCCF8BE5860F833056
:102DA00020F480E090E00C941514685A653120F40A
:102DB00080E090E00C942B140895882321F00E9469
:102DC000D31F0C949D1F0895882321F00E94D91FC2
:102DD0000C949D1F08958F929F92AF92BF92CF92B5
:102DE000DF92EF92FF920F931F93CF93DF931F9287
:102DF000CDB7DEB77C01C72EFC01058102950F70AF
:102E00001281112321F069830E94F01F6981698377
:102E10000E94961F6981882381F0112371F080E25E
:102E2000860F883050F082E00E947F1F0E94961F1C
:102E300091E0D82ED926698101C0D12CAC2CA29466
:102E40008FE0A822B12CF501E159FF4F0C94F93025
:102E50008C2D807F0C2D0F70882311F00295007F40
:102E60001123C1F0002309F4D2C180E2860F88301B
:102E700010F0611105C0802F69830E94D31F04C028
:102E8000802F69830E94E31F698169830E949D1FCF
:102E90006981BDC1862F69830E947E1669810023E6
:102EA00009F40EC280E2860F883010F0611104C070
:102EB000802F0E94D91F03C0802F0E94E91F0E940B
:102EC0009D1FFEC19C2D907F8C2D8F70903211F034
:102ED0008295807F662319F06130B1F01EC0112306
:102EE00049F0002309F44BC1013009F048C10E94A8
:102EF0000320E6C1002319F0013009F4E1C1898300
:102F00000E940620898141C1112321F0023008F07E
:102F1000D7C135C10111D4C138C1112321F000231B
:102F200009F42DC174C1002309F42FC181C18C2D76
:102F300086958695837090E0009719F0019761F06F
:102F4000BFC1112321F0862F9C2D937002C080E019
:102F500090E00E941514C4C1112321F0862F9C2DEE
:102F6000937002C080E090E00E942B14B9C111233D
:102F7000F9F0653F51F0663F71F0643FA9F480912C
:102F8000A5039091A60381600BC08091A503909149
:102F9000A603826005C08091A5039091A60384607A
:102FA0009093A6038093A503862F0E94A2221EC0A1
:102FB000653F51F0663F71F0643FA9F48091A5032D
:102FC0009091A6038E7F0BC08091A5039091A603DC
:102FD0008D7F05C08091A5039091A6038B7F909370
:102FE000A6038093A503862F0E940A230E948F23A5
:102FF00077C18C2D837009F052C011116DC1862FDD
:10300000829586958770880F880F962F9F70892EDE
:10301000912CA12CB12C082E04C0880C991CAA1C40
:10302000BB1C0A94D2F764FF14C00FE010E020E04C
:1030300030E0B901A80104C0440F551F661F771F77
:103040008A95D2F7CB01BA016095709580959095DD
:1030500003C060E070E0CB012C2D269526952370EF
:1030600030E02230310569F02330310589F06829DC
:1030700079298A299B292130310571F00E94B81DD8
:103080002BC1682979298A299B290E94CA1D24C13C
:103090000E94B81DC501B4010E94A61D1DC11123C7
:1030A00019F08C2D817001C08695882309F414C114
:1030B000862F829586958770880F880F962F9F7030
:1030C000892E912CA12CB12C082E04C0880C991C9F
:1030D000AA1CBB1C0A94D2F764FF14C00FE010E0D6
:1030E00020E030E0B901A80104C0440F551F661F5D
:1030F000771F8A95D2F7CB01BA01609570958095BC
:10310000909503C060E070E0CB012C2D26952695AC
:103110002370422F50E04230510569F04330510591
:1031200089F0682979298A299B294130510571F054
:103130000E947D1ED1C0682979298A299B290E9475
:103140008F1ECAC00E947D1EC501B4010E946B1E65
:10315000C3C0862F90E0FC01E05EF109E531F10586
:1031600008F051C0E158FF4F0C94F930062F0F7052
:103170008C2D8F71112331F00E94041E802F0E942C
:10318000DD169EC00E94251E802F0E94E41698C066
:10319000112339F0011194C08C2D8F710E944A1EA9
:1031A0008FC0023008F08CC0F7CF112339F08C2D7E
:1031B0008F710E94041E84C01123C9F38C2D8F715E
:1031C0000E94251E7DC0112329F08C2D8F710E9435
:1031D000EF1D76C00E94EA1D73C0112351F01C2D13
:1031E0001F71812F0E94041E63E0812F0E94761FB1
:1031F00067C081E00E947F1F023008F461C082E056
:103200000E947F1F5DC0112331F0002381F2862FC1
:103210000E946F1555C0002389F2693349F45FEFAE
:1032200077EE83E0515070408040E1F700C000002D
:10323000862F0E947E1644C04C2D4F70C7010E94FD
:103240006B060E94191D4CC0623F99F128F4603F43
:1032500049F0613FE1F020C0643FA1F050F0653FCC
:1032600059F01AC0112339F19091920281E0892717
:1032700006C081E018271DC011111DC081E0809398
:10328000920219C0111117C01092920214C00023AB
:1032900081F0111110C0E8CF002359F0862F698307
:1032A000112319F00E946F1502C00E947E166981D9
:1032B00002C0109392024C2D4F70C7010E94E80982
:1032C00098E0A916B10441F05CF0FAE0AF1AB10839
:1032D00022E0A216B10420F40E94F3130E94E60932
:1032E000DD20F1F00E94721F80FD1AC0F7011282EA
:1032F0000E946C1F0E94041EC7010E949E190E941A
:103300006C1F0F90DF91CF911F910F91FF90EF9065
:10331000DF90CF90BF90AF909F908F900C94251E20
:103320000F90DF91CF911F910F91FF90EF90DF9061
:10333000CF90BF90AF909F908F9008950F931F9361
:10334000CF93DF93EC01888199812B813C81232BE2
:10335000B9F09F3F11F48F3F99F0CE010E94E00633
:10336000882371F0688179818A810E94491F8C01CC
:103370000E94A11E0E94A31DB801CE010E94EB165F
:10338000DF91CF911F910F9108950E94F01F0E942D
:10339000002080910301909104010E9408210E9465
:1033A0009D1F0E9428240E948F2380E090E00E94AD
:1033B000151480E090E00C942B140E94E01F0C94F4
:1033C000C5190E943E1FE92FE295EF70F0E0329799
:1033D000EE30F105B0F4EC56FF4F0C94F930803F1D
:1033E00091F018F4803E68F40EC0843F51F40BC095
:1033F000803E48F0813F29F406C093FB882780F97E
:10340000089580E0089581E00895CF93DF9300D080
:1034100000D01F92CDB7DEB70F900F900F900F9096
:103420000F90DF91CF910895CF93DF9300D000D01C
:1034300000D0CDB7DEB726960FB6F894DEBF0FBE2C
:10344000CDBFDF91CF9108951F93CF93DF93C091AC
:10345000930216E080919402C81799F0D0E01C9F67
:10346000F0011D9FF00D1124EB56FD4F408151815D
:1034700062817381848195810E94141A2196C7709C
:10348000E9CFDF91CF911F9108954091C5025091EE
:10349000C6026091C7027091C8028091C9029091E2
:1034A000CA020C94141A8091CA0282958F7009F096
:1034B00054C08091C702882309F44FC080919302C1
:1034C000A09194026091C5027091C6024091C80219
:1034D0005091C902B6E08A1709F43FC090E0411547
:1034E0005105C1F17F3F11F46F3FA1F1B89FF00189
:1034F000B99FF00D1124EB56FD4F218172132AC0A4
:103500002081621327C02281211124C023813481AC
:103510002417350710F421503109241B350B283CA2
:103520003105C0F42091CA022F7020612093CA0295
:1035300026E0289FF001299FF00D1124E656FD4F4B
:1035400080818F708061808385EC92E00E949E195B
:103550000C94241A01968770BECF0895CF92DF9203
:10356000EF92FF920F931F93CF93DF93CDB7DEB708
:1035700062970FB6F894DEBF0FBECDBF8C0185E019
:10358000F801DE011D9601900D928A95E1F7D801B0
:103590004C9111965C91119712966C91129713961B
:1035A000CD90DC9014973091C5027091C602809145
:1035B000C8029091C902009709F46BC17F3F19F4CA
:1035C0003F3F09F466C1E090C702EE2009F4C0C095
:1035D0002091CA02C816D90628F0F601E81BF90B9B
:1035E000CF0104C0809590958C0D9D1DFF24F39410
:1035F000883C910578F0F12C207F09F0C6C07C2D25
:10360000D98AC88A89890E94051A85EC92E00E94AD
:103610009E19B1C0822F807F09F046C0751314C077
:10362000341312C0611110C02F7020612093CA02A0
:103630000E94451A85EC92E00E949E198091CA0270
:10364000D80115968C932EC0CD2819F15F3F11F447
:103650004F3FF9F0F62E61111CC08091930220912A
:10366000940236E0821709F45AC090E0389FF001C6
:10367000399FF00D1124EB56FD4F7181571306C091
:103680007081471303C07281711103C00196877066
:10369000E9CFF62E662309F418C18091CA02816031
:1036A0008093CA02F12C11C1751308C0341306C0EF
:1036B000611104C08091CA02D801C3C04D875E87E2
:1036C0008D859E856A8B0E94E1196A898823E1F1C4
:1036D0006623D1F12091CA02822F82958F7090E0EB
:1036E000029774F08091C5029091C60298878F83EB
:1036F0001986DB86CA862C87CE0107960E949E1902
:1037000086E0F801A5ECB2E001900D928A95E1F710
:103710000E94531A0E94451AFF24F394D6C04D8785
:103720005E878D859E850E943E1F292F22952F70D2
:1037300030E0223031050CF0BCC09F7009F0B6C0FB
:10374000805E883008F4C1C0C8010E949E19E4CF91
:10375000C816D90608F453C0F601E81BF90BCF01CF
:10376000883C910508F450C0F12C7C2DD98AC88A78
:1037700089890E94051AE5ECF2E086E0DF011D92DE
:103780008A95E9F70E94451AA0C0751314C0341336
:1037900012C0611110C08091CA02F8018583C8016E
:1037A0000E949E1986E0E5ECF2E0DF011D928A9509
:1037B000E9F7FE2C8AC04D875E878D859E856A8BD2
:1037C0000E94E1196A89882309F4BECF662309F4AF
:1037D000BBCF2091CA02822F82958F7090E0029712
:1037E0000CF48ECF8091C5029091C6029A83898392
:1037F0001B82DD82CC822E83CE0101967FCF809505
:1038000090958C0D9D1DACCFF62E662309F49CCFB0
:1038100075132EC034132CC02091CA0220FD1FC086
:10382000822F82958F70D9F0D80115962C93159719
:103830008F3049F08F5F982F9295907F822F8F70F5
:10384000892B15968C93C8010E949E1986E0F80179
:10385000A5ECB2E001900D928A95E1F793CF86E056
:10386000F801A5ECB2E001900D928A95E1F72DC028
:103870004D875E878D859E850E94E119811140CF1D
:103880008091CA0281608093CA02C8010E949E1979
:103890001CC0662309F458CF4D875E878D859E85B1
:1038A0000E94E119882309F44FCF2ACF811148CF14
:1038B0000CC0243031050CF047CF9F7009F440CF85
:1038C000F8019581907F09F03BCF8F2D62960FB65E
:1038D000F894DEBF0FBECDBFDF91CF911F910F9146
:1038E000FF90EF90DF90CF9008951F93CF93DF93D9
:1038F000CDB7DEB72C970FB6F894DEBF0FBECDBFA5
:103900004F83588769877A878B879C87CE01079674
:103910000E94AE1A882369F08F8198852A853B859D
:10392000232BF1F19F3F09F063C08F3F09F060C086
:1039300037C086E0FE013796DE01119601900D92A8
:103940008A95E1F76F817885EA85FB85309741F1AB
:103950007F3F11F46F3F21F12091940230E0C901C3
:103960000196877099274091930250E0841795073C
:1039700009F447C069837A83FD83EC8396E0929FC4
:10398000D001939FB00D1124AB56BD4FFE0131966F
:1039900001900D929A95E1F7809394020E94241A67
:1039A00016E080919302909194028917C1F1189FBB
:1039B000C00111248B569D4F0E94AE1A882379F1C5
:1039C000E09193021E9FF0011124EB56FD4F4081C0
:1039D000518162817381848195810E94141A809142
:1039E000930290E001968770992780939302D9CF34
:1039F0004F81588569857A858B859C850E94141A2C
:103A0000CFCF0E94DD191092940210929302E5EC40
:103A1000F2E086E0DF011D928A95E9F7C1CF2C968E
:103A20000FB6F894DEBF0FBECDBFDF91CF911F91CF
:103A30000895EF92FF920F931F93CF93DF938C0122
:103A4000892B09F46CC0F12CEE24E394E801219653
:103A5000F8018491843740F4843008F051C08130FB
:103A600081F0823019F15BC0853709F444C0A8F1B8
:103A70009CE7980F903708F052C08F770E947E160F
:103A800041C00E5F1F4FFE01C49180E28C0F883051
:103A900048F4C7708E2D01C0880FCA95EAF70E94BE
:103AA000F31F14C08C2F0E946F152DC00E5F1F4F87
:103AB000FE01C49180E28C0F883058F4C7708E2DBF
:103AC00001C0880FCA95EAF70E94F91F0E949D1F46
:103AD0001AC08C2F0E947E1616C00E5F1F4FFE016B
:103AE000C491CC2381F08FE99FE00197F1F700C0EA
:103AF0000000C150F6CF0E5F1F4FFE01F49003C0CF
:103B00000E946F158E018F2D882309F49FCFEFE956
:103B1000FFE03197F1F700C000008150F5CFDF9151
:103B2000CF911F910F91FF90EF90089508950E94FB
:103B3000961D609306037093070380930803909388
:103B400009030C94C51908950C94971D0F931F93A6
:103B50000091060310910703209108033091090397
:103B6000602B712B822B932B1F910F910C94971D1F
:103B70000F931F93009106031091070320910803F0
:103B80003091090360237123822393231F910F91A6
:103B90000C94971D0F931F93009106031091070338
:103BA000209108033091090360277127822793270A
:103BB0001F910F910C94971D0C949D060E94DC1D83
:103BC00060930203709303038093040390930503AF
:103BD0000C94C51960E070E0CB010C94DE1D0F93CE
:103BE0001F9341E050E060E070E08A019B0104C057
:103BF000000F111F221F331F8A95D2F7C901B80188
:103C00001F910F910C94DE1D0F931F9341E050E024
:103C100060E070E004C0440F551F661F771F8A954F
:103C2000D2F78091020390910303A0910403B09115
:103C300005038A019B01082B192B2A2B3B2BC90159
:103C4000B8011F910F910C94DE1D0F931F9341E05B
:103C500050E060E070E004C0440F551F661F771FFE
:103C60008A95D2F7409550956095709580910203A2
:103C700090910303A0910403B09105038A019B0175
:103C8000082319232A233B23C901B8011F910F914F
:103C90000C94DE1D0F931F9341E050E060E070E054
:103CA00004C0440F551F661F771F8A95D2F7809175
:103CB000020390910303A0910403B09105038A01CC
:103CC0009B01082719272A273B27C901B8011F9103
:103CD0000F910C94DE1D0F931F930091020310911E
:103CE00003032091040330910503602B712B822B79
:103CF000932B1F910F910C94DE1D0F931F93009136
:103D00000203109103032091040330910503602303
:103D10007123822393231F910F910C94DE1D0F9327
:103D20001F9300910203109103032091040330912B
:103D3000050360277127822793271F910F910C9409
:103D4000DE1D0895292F220F920F990F890FA82F9A
:103D5000A695A695A695877051E001C0550F8A9546
:103D6000EAF785E0A89FD001112420E030E070E060
:103D7000F901EA0FFB1FE553FD4F4081CB01022EF5
:103D800002C0969587950A94E2F7817099278195EC
:103D900084278523842780832F5F3F4F253031057B
:103DA00039F70895292F220F920F990F890F682F45
:103DB000669566956695982F977085E0689FB00127
:103DC000112440E050E080E0FA01E60FF71FE553D0
:103DD000FD4F208130E0092E02C0369527950A94C8
:103DE000E2F721703327042E01C0220F0A94EAF76C
:103DF000822B4F5F5F4F4530510531F70895CF92C9
:103E0000DF92EF92FF920F931F93CF93DF938C017A
:103E1000C0900603D0900703E0900803F0900903D8
:103E20008091020390910303A0910403B0910503D4
:103E3000C82AD92AEA2AFB2ACFE1D0E0D701C60155
:103E40000C2E04C0B695A795979587950A94D2F73E
:103E500080FF06C0B8018C2F0E94030A019721F44D
:103E6000219760F780E001C08C2FDF91CF911F91E7
:103E70000F91FF90EF90DF90CF900895CF93DF9355
:103E8000EC010E94FF1EBE010E94030ADF91CF9148
:103E900008951F93CF93DF93EB01909191029923A3
:103EA00021F0CB010E943E1F13C0882349F0CB01B3
:103EB0000E94FF1E182F682FCE010E94A21E04C070
:103EC000CB010E94D21E182FBE01812F0E94030A2F
:103ED000DF91CF911F91089580910A038595859573
:103EE0008595089580910A038770089598E0899FC9
:103EF00090011124262B20930A030C94041E209178
:103F00000A038095822380930A03982F977069F49F
:103F100030E0482F082E000C550B2417350729F0E8
:103F20008595859585950C94251E089590910A0395
:103F3000977081E009F480E00895E0910301F09129
:103F4000040180912E038083E0910301F09104012C
:103F5000908180912D03892B8083E0910301F09162
:103F60000401908180912C03892B808380910B0325
:103F7000882381F0E0910301F09104019081892B65
:103F8000808380910301909104010E949620811109
:103F900010920B0380910301909104010C94FF1384
:103FA00080912E03089590912E03892B80932E03E8
:103FB0000895809590912E03892380932E03089570
:103FC00010922E03089590912D03892B80932D0339
:103FD0000895809590912D03892380932D03089552
:103FE00010922D03089590912C03892B80932C031C
:103FF0000895809590912C03892380932C03089534
:1040000010922C03089580930B03089510920B03D4
:104010000895CF92DF92EF92FF926C01EE24FF247D
:10402000C114D104E104F10421F0C701B60120E17B
:1040300001C020E0C72ED82EE92EFF24C114D104E0
:10404000E104F10419F0285FC701B6016B017C019E
:1040500054E0F694E794D794C7945A95D1F7C114D5
:10406000D104E104F10419F02C5FC701B6016B0122
:104070007C0142E0F694E794D794C7944A95D1F72F
:10408000C114D104E104F10419F02E5FC701B60197
:10409000DC01CB01B695A79597958795892B8A2B3F
:1040A0008B2B09F02F5F822FFF90EF90DF90CF9046
:1040B00008956DEE7EEF80E090E00E94313160E087
:1040C00082E090E00E94133160E083E090E00E9483
:1040D000133160E084E090E00E94133160E085E0FD
:1040E00090E00E94133140E050E0BA0188E090E097
:1040F0000C94253180E090E00E940D3121E08D3E4E
:104100009E4F09F020E0822F089582E090E00C9409
:10411000FF3083E090E00C94FF3084E090E00C945A
:10412000FF30682F84E090E00C941331FC0131964D
:104130009C01205E3F4F80E0919191118F5FE217CB
:10414000F307D1F708959C01FC0132969FEF80E0C0
:104150004191461789F09F3F19F4411101C0982FF2
:104160008F5F8E31A9F79F3F39F0F901E90FF11DFB
:1041700097FDFA95628308950895FC013296809622
:104180002081261301C010823196E817F907C1F784
:104190000895262F2695269526952F3168F4FC0143
:1041A000E20FF11D677021E030E001C0220F6A9537
:1041B000EAF78181282B21830895262F26952695BD
:1041C00026952F3170F4FC01E20FF11D677021E09C
:1041D00030E001C0220F6A95EAF7209581812823FB
:1041E0002183089520911401222329F02091AB030B
:1041F00027FD0C94C9200C94A320209114012223A4
:1042000029F02091AB0327FD0C94DD200C94BD20F8
:10421000FC01319680961192E817F907E1F70895AD
:104220008091B103843039F11092300320E488E1A9
:1042300090E00FB6F894A895809360000FBE20938D
:10424000600080E00E94E60983B7817F846083BFBD
:1042500083B7816083BF7894889583B78E7F83BF4F
:104260000FB6F894A89580916000886180936000F3
:10427000109260000FBE08950895CF930E947804B5
:104280000E94C5040E943C21C0E08C2F0E94A7051B
:10429000811104C0CF5FCE30C1F701C081E0CF9162
:1042A00008950E94DD190E94F3130C94E6091F92F1
:1042B0000F920FB60F9211248F939F93AF93BF93DA
:1042C00080913003811113C08091A7039091A803BE
:1042D000A091A903B091AA034196A11DB11D80939D
:1042E000A7039093A803A093A903B093AA03BF9137
:1042F000AF919F918F910F900FBE0F901F901895C7
:1043000082E084BD93E095BD9AEF97BD80936E00E7
:1043100008952FB7F8948091A7039091A803A091D6
:10432000A903B091AA032FBF0895CF92DF92EF9215
:10433000FF920F931F932FB7F8944091A7035091CA
:10434000A8036091A9037091AA032FBF6A017B01A2
:10435000EE24FF248C0120E030E0C016D106E206F6
:10436000F30610F4415051099A01281B390BC90179
:104370001F910F91FF90EF90DF90CF900895789468
:104380001F920F920FB60F9211248F939F93AF93AA
:10439000BF938091A7039091A803A091A903B09126
:1043A000AA030196A11DB11D8093A7039093A803B2
:1043B000A093A903B093AA03BF91AF919F918F914E
:1043C0000F900FBE0F901F9018950E94812AF894AD
:1043D0002FEF87EA91E6215080409040E1F700C03E
:1043E000000087E090EBDC018093BA039093BB035D
:1043F000A093BC03B093BD039CE088E10FB6F89492
:10440000A895809360000FBE90936000FFCF0E943C
:104410007A20811102C00E9459200E948520809339
:104420002F030E948D2090E09093AC038093AB0308
:104430000E948920682F70E080E090E00C94A41D19
:104440008091340380FF0BC06091080185E0689F74
:10445000B001112475956795759567952BC081FFFF
:1044600009C06091080185E0689FB001112475952D
:10447000679520C082FF07C06091080185E0689FB2
:10448000B001112417C0909135039923D1F06091A8
:104490000701961788F72091080185E0289F900171
:1044A0001124929FA001939F500D112470E0CA0126
:1044B0000E94E5306038710540F46115710539F0EE
:1044C00002C065E070E0862F08958FE7089581E0CF
:1044D00008958091340380FF08C06091060170E068
:1044E000759567957595679521C081FF06C06091A8
:1044F000060170E07595679519C082FF04C0609150
:10450000060170E010C0909135039923C1F06091CD
:1045100005019617A0F780910601899FC00111241B
:1045200070E00E94E5306038710528F4611571056E
:1045300021F0862F08958FE7089581E0089561E0C6
:1045400070E0F4CF803F21F40E942022819504C0C6
:10455000813F29F40E942022809338030895823FEE
:1045600021F40E942022819504C0833F29F40E94F7
:104570002022809337030895893F19F40E9469220D
:1045800005C08A3F31F40E946922819580933903E6
:1045900008958B3F21F40E946922819504C08C3FCD
:1045A00029F40E94692280933A030895843F21F4FC
:1045B00080913603816017C0853F21F480913603D6
:1045C000826011C0863F21F48091360384600BC065
:1045D000873F21F480913603886005C0883F31F41D
:1045E0008091360380618093360308958D3F21F4D6
:1045F0008091340381600BC08E3F21F4809134039D
:10460000826005C08F3F29F48091340384608093D9
:1046100034030895803F39F48091380387FF6CC0DC
:104620001092380369C0813F29F48091380318162D
:10463000BCF362C090913703823F29F497FF5CC0BE
:104640001092370359C0833F19F41916CCF354C0A4
:10465000893F41F48091390318160CF04DC0109237
:1046600039034AC08A3F29F48091390387FF44C047
:10467000F6CF8B3F39F480913A0387FF3DC010920B
:104680003A033AC08C3F29F480913A031816BCF3E0
:1046900033C0843F21F4809136038E7F17C0853F5D
:1046A00021F4809136038D7F11C0863F21F48091E3
:1046B00036038B7F0BC0873F21F480913603877FC1
:1046C00005C0883F31F4809136038F7E8093360396
:1046D00013C08D3F21F4809134038E7F0BC08E3F39
:1046E00021F4809134038D7F05C08F3F29F48091A0
:1046F00034038B7F809334038091370381110EC084
:104700008091380381110AC080913903811106C05C
:1047100080913A03811102C010923503089586E317
:1047200093E00E940A140E9489219093320380939F
:10473000310308951F93CF93DF93809131039091BC
:1047400032030E949521AC0190913503992321F009
:104750002091090130E006C0209133038AE0289FB0
:10476000900111244217530708F46EC0809137035B
:10477000C0913803D091390310913A03811107C0D9
:10478000C1115EC0D1115CC011115AC05DC09F3F04
:1047900019F09F5F90933503181624F40E9420228D
:1047A000809337038091370387FF05C00E94202242
:1047B0008195809337031C1624F40E942022809355
:1047C00038038091380387FF05C00E94202281951D
:1047D0008093380340913703442379F030913803B4
:1047E000332359F025EB4203A001112450933703E2
:1047F0003203C0011124909338031D1624F40E9443
:104800006922809339038091390387FF05C00E9494
:104810006922819580933903111624F40E9469223C
:1048200080933A0380913A0387FF05C00E94692272
:10483000819580933A03DF91CF911F910C948F2340
:104840009F3F09F0A6CFAECFDF91CF911F91089582
:10485000E6E3F3E085E0DF011D928A95E9F7109227
:104860003503109234030895833081F128F48130A8
:1048700059F08230D1F00895853009F449C0B8F17B
:10488000863009F456C0089580913303262F30E016
:10489000280F311D2F3F310524F4680F6093330337
:1048A00008958FEF80933303089580910901262F97
:1048B00030E0280F311D2F3F310524F4680F60933D
:1048C000090108958FEF80930901089580910801EF
:1048D000262F30E0280F311D2F3F310524F4680FBB
:1048E0006093080108958FEF8093080108958091E7
:1048F0000701262F30E0280F311D2F3F310524F40A
:10490000680F6093070108958FEF80930701089562
:1049100080910601262F30E0280F311D2F3F3105F1
:1049200024F4680F6093060108958FEF80930601C9
:10493000089580910501262F30E0280F311D2F3F6B
:10494000310524F4680F6093050108958FEF80937B
:1049500005010895833011F128F4813049F0823047
:1049600091F00895853081F120F18630C1F10895EC
:1049700080913303681720F4861B809333030895D6
:1049800010923303089580910901681720F4861B63
:1049900080930901089510920901089580910801FA
:1049A000681720F4861B809308010895109208016F
:1049B000089580910701681720F4861B80930701F2
:1049C000089510920701089580910601681720F458
:1049D000861B809306010895109206010895809128
:1049E0000501681720F4861B809305010895109235
:1049F000050108950F931F93873208F04DC08E3143
:104A000008F093C0803109F47DC008F5873009F4BF
:104A10006BC068F4863009F0A3C080912F03817FBA
:104A20008E7F80932F0381E080933C039AC08B306C
:104A300009F48FC08E3009F093C080912F0382FB60
:104A4000222720F991E0922790FB82F964C08631F9
:104A500009F47FC088F4813109F082C00E94DD1919
:104A60008091AB0387FB222720F991E0922790FBEE
:104A700087F98093AB036DC0893109F46AC08B312B
:104A800009F06EC080912F0381FB222720F991E06D
:104A9000922790FB81F93FC0883309F45AC050F443
:104AA000893209F458C0853309F455C0873209F4B6
:104AB00052C056C0833409F44EC028F48A3308F437
:104AC0004FC0895333C0883409F04AC00E94DD19B1
:104AD0000FEF13ED20E3015010402040E1F700C03C
:104AE00000000E94E52135C080912F03982F9095FA
:104AF000917090FB80F980932F0391112AC0897FD8
:104B0000877F10C080912F0383FB222720F991E03B
:104B1000922790FB83F980932F039923D1F0809102
:104B20002F03816080932F0314C08D5141E050E02A
:104B300060E070E08A019B0104C0000F111F221F7A
:104B4000331F8A95D2F7C901B8010E94A41D0E94A3
:104B5000DD1981E006C061E070E080E090E0F5CF13
:104B600080E01F910F91089580E0089580E00895FE
:104B70008E518A3030F4E82FF0E0E354FE4F80810C
:104B8000089580E00895CF93C82F80913C03813031
:104B900079F018F08230E9F185C0E0910301F091DD
:104BA00004018081813169F0823209F07DC009C041
:104BB000E0910301F09104018081813111F0823292
:104BC00061F48C2F0E94B425811104C08C2F0E94A7
:104BD000FA241DC081E090E01AC08C2F0E94B625F7
:104BE000811114C0C43179F048F4CB3079F0C03170
:104BF00009F05EC082E080933C0308C0C93219F01E
:104C0000C83321F055C010923C0352C081E081703E
:104C100051C0C93279F108F5C43161F1A0F4C7304F
:104C200009F044C01092330384E180930901C093DA
:104C300008018CE38093070188E08093060188E2F5
:104C40008093050133C082EE8C0F863078F58C2F6F
:104C50000E94B82580933B0329C0CE34E9F020F4AC
:104C6000CB3421F56AE013C0C13579F0C235F1F4D7
:104C700061E00DC080913B03882319F010923B0343
:104C800015C081E080933C0315C061E006C08091AF
:104C90003B030E9434240AC06AE080913B030E94D7
:104CA000AA2404C010923C0380E004C081E002C04A
:104CB00080E0ADCFCF91089580915D0308950F936B
:104CC0001F93CF93DF9300D01F92CDB7DEB78C0137
:104CD0000E94CF28823011F0843019F593E0998337
:104CE0001B830A839093E9008FEF9091E800815035
:104CF00095FD06C095ED9A95F1F700008111F5CF6D
:104D00008091E80085FF0DC040E050E063E070E076
:104D1000CE0101960E94EC288091E8008E77809366
:104D2000E8000F900F900F90DF91CF911F910F919E
:104D30000895CF93DF9300D01F92CDB7DEB72091B7
:104D4000B103243031F522E02983805891099B83F7
:104D50008A8383E08093E9008FEF9091E80081508F
:104D600095FD06C095ED9A95F1F700008111F5CFFC
:104D70008091E80085FF0DC040E050E063E070E006
:104D8000CE0101960E94EC288091E8008E778093F6
:104D9000E8000F900F900F90DF91CF910895CF937F
:104DA000DF93EC010E94CF28823011F08430F9F4B7
:104DB00082E08093E9009FEF8091E800915085FDAB
:104DC00006C085ED8A95F1F700009111F5CF80912D
:104DD000E80085FF0CC040E050E065E070E0CE01E7
:104DE0000E94EC288091E8008E778093E800DF91A4
:104DF000CF910895CF93DF93EC010E94CF288230AA
:104E000019F0843009F047C0809114018823E1F043
:104E10008091AB0387FF18C084E08093E9008FEF97
:104E20009091E800815095FD06C095E19A95F1F7C3
:104E300000008111F5CF8091E80085FF2CC040E093
:104E400050E060E270E017C081E08093E9008FEFEE
:104E50009091E800815095FD06C095ED9A95F1F787
:104E600000008111F5CF8091E80085FF14C040E07B
:104E700050E068E070E0CE010E94EC288091E800EC
:104E80008E778093E80080E2FE01ADE3B3E001900D
:104E90000D928A95E1F7DF91CF9108958091B0034B
:104EA000811109C00E94812A0E94DE2A8091E200BD
:104EB00084608093E20008951092B00308950895ED
:104EC00008950C94512142E061EC81E00E94FB299D
:104ED00042E061EC82E00E94FB2942E061EC83E069
:104EE0000E94FB2942E261EC84E00C94FB29809152
:104EF000B303833009F455C030F4813071F082304F
:104F000009F48EC008958A3009F47AC08B3009F410
:104F100060C0893009F09CC020C08091B203813A02
:104F200009F096C08091E800877F8093E800809127
:104F3000B6039091B703892B21F460E28DE393E0EF
:104F400003C060E080E090E070E00E94372980912B
:104F5000E8008B778093E80008958091B203813256
:104F600009F076C08091B6039091B703009719F0CD
:104F7000039709F06DC08091E800877F8093E80077
:104F80008091E80082FD05C08091B1038111F8CFC6
:104F90005FC08091F10080935D038091E8008B7782
:104FA00053C08091B203813A09F052C08091B60398
:104FB0009091B703892B09F04BC08091E800877F5F
:104FC0008093E8008091E80080FFFCCF809114017D
:104FD00036C08091B2038132D9F58091B6039091A9
:104FE000B703892BA9F58091E800877F8093E800BB
:104FF0000E94302A8091B403809314010C94DD192F
:105000008091B203813221F58091E800877F8093FF
:10501000E8000E94302A8091B50380935E030895D2
:105020008091B203813AA1F48091E800877F809358
:10503000E8008091E80080FFFCCF80915E038093C0
:10504000F1008091E8008E778093E8000C94302A7C
:10505000089584B7877F84BF0FB6F894A895809190
:105060006000886180936000109260000FBE80E84D
:1050700080936100109261000E9442140E94812A74
:105080000E94DE2A8091E20084608093E20078949E
:105090000E946D2D0E9446148AE091E00E94EE135A
:1050A0008091B103853069F40E9410218091AF0393
:1050B0008823B1F30E943D21882391F30E94D628D2
:1050C000EFCF0E944E140E94F112EACF292F33270E
:1050D00023303105C9F064F42130310581F02230EC
:1050E000310509F043C08DE690E02AEA35E042C080
:1050F00021323105F1F02232310541F137C082E130
:1051000090E027E136E036C099278130910541F0E3
:105110008230910541F0892B49F5E6EAF5E005C0BA
:10512000EEE8F5E002C0E6E7F5E0849190E09F014B
:1051300021C064307105D0F4660F771FFB01ED527A
:10514000FE4F2081318189E090E014C06430710508
:1051500068F4FB01EE0FFF1FE553FE4F2081318104
:10516000FB01E953FE4F808190E004C080E090E0B5
:1051700020E030E0FA013183208308950895CF9331
:10518000C82F0E94BE28C0935F03CF9108958091DD
:10519000B103843011F081E0089582E00895809198
:1051A0005F03811102C00C94C728089580E189BD76
:1051B00082E189BD09B400FEFDCF8091D8008F7DCA
:1051C0008093D8008091E00082608093E00080911D
:1051D000E00081FDFCCF0895CF92DF92EF92FF9225
:1051E0000F931F93CF93DF93EC018B016A010E9411
:1051F0004F2A811133C0C114D10439F0F6018081E6
:105200009181081B190BC80FD91FE12CF12C011536
:10521000110519F18091E80085FD16C08091E80024
:105220008E778093E800C114D10449F0F6018081A3
:105230009181E80EF91EF182E08285E00FC00E94A4
:105240004F2A882321F30AC089918093F1000150ED
:105250001109FFEFEF1AFF0ADACF80E0DF91CF915B
:105260001F910F91FF90EF90DF90CF9008952091C4
:10527000B8033091B9032617370748F06115710557
:1052800039F42091E8002E772093E80001C0B9019D
:1052900040E061157105A9F12091B103222309F4C1
:1052A00043C0253009F442C02091E80023FD40C0EE
:1052B0002091E80022FD32C02091E80020FFE9CFD4
:1052C0004091F3002091F20030E0342BFC01CF013B
:1052D0006115710559F02830310540F481918093B2
:1052E000F100615071092F5F3F4FF1CF41E028304D
:1052F000310509F040E02091E8002E772093E80086
:10530000C8CF4111C9CF0AC08091B103882361F091
:10531000853061F08091E80083FD0AC08091E8004B
:1053200082FFF2CF80E0089582E0089583E008953F
:1053300081E008952091B8033091B903261737070B
:1053400048F06115710539F42091E8002E7720931B
:10535000E80001C0B901FC0120E06115710591F17F
:105360008091B103882309F440C0853009F43FC01F
:105370008091E80083FD3DC08091E80082FD2FC050
:105380008091E80080FFE9CF2091F3008091F20046
:1053900090E0922B6115710559F08830910540F429
:1053A00024912093F1003196615071090196F2CF5A
:1053B00021E0089709F020E08091E8008E77809343
:1053C000E800CBCF2111CCCF0AC08091B103882354
:1053D00061F0853061F08091E80083FD0AC0809122
:1053E000E80082FFF2CF80E0089582E0089583E034
:1053F000089581E00895982F973058F59093E9002B
:10540000981739F07091EC002091ED005091F00068
:1054100003C0242F762F50E021FF19C03091EB00FC
:105420003E7F3093EB003091ED003D7F3093ED00F7
:105430003091EB0031603093EB007093EC002093DF
:10544000ED005093F0002091EE0027FF07C09F5F12
:10545000D3CF8F708093E90081E0089580E00895B4
:105460008091B20387FF11C08091E80082FD05C0E2
:105470008091B1038111F8CF11C08091E8008B7742
:105480000BC08091B103882349F08091E80080FF30
:10549000F8CF8091E8008E778093E80008952091FE
:1054A000E4003091E50095E64091EC00842F817096
:1054B00040FF22C08091E80080FD1CC08091B103B4
:1054C000882391F0853091F08091EB0085FD10C02C
:1054D0004091E4005091E5004217530729F39A01E7
:1054E000915011F784E0089582E0089583E00895D3
:1054F00081E0089580E008954091E80042FFDECF0A
:1055000008950E94EF2A0E94F72AE0EEF0E08081E1
:1055100081608083E8EDF0E080818F77808319BC23
:10552000A7EDB0E08C918E7F8C9380818F7E8083FD
:105530001092B00308950F931F93CF93DF930E94AF
:10554000EF2A0E94F72AC8EDD0E088818F77888300
:1055500088818068888388818F7D888319BC1092B8
:10556000B1031092AD031092AF031092AE0300EEA0
:1055700010E0F80180818B7F80838881816088833F
:1055800042E060E080E00E94FB29E1EEF0E08081F3
:105590008E7F8083E2EEF0E0808181608083808175
:1055A00088608083F80180818E7F8083888180611C
:1055B0008883DF91CF911F910F910895E8EDF0E07E
:1055C00080818F7E8083E7EDF0E080818160808341
:1055D00084E082BF81E08093B0030C949B2AE8EDC5
:1055E000F0E080818E7F80831092E2000895109217
:1055F000DA001092E10008951F920F920FB60F92F9
:1056000011242F933F934F935F936F937F938F93C7
:105610009F93AF93BF93EF93FF938091E10082FF3D
:105620000BC08091E20082FF07C08091E1008B7F78
:105630008093E1000E946C2D8091DA0080FF1FC0F2
:105640008091D80080FF1BC08091DA008E7F80930C
:10565000DA008091D90080FF0DC080E189BD82E130
:1056600089BD09B400FEFDCF81E08093B1030E94A3
:105670004E2705C019BC1092B1030E945C2780918F
:10568000E10080FF19C08091E20080FF15C0809189
:10569000E2008E7F8093E2008091E200806180933F
:1056A000E2008091D80080628093D80019BC85E028
:1056B0008093B1030E9460278091E10084FF30C095
:1056C0008091E20084FF2CC080E189BD82E189BD28
:1056D00009B400FEFDCF8091D8008F7D8093D80063
:1056E0008091E1008F7E8093E1008091E2008F7EC7
:1056F0008093E2008091E20081608093E2008091DB
:10570000AD03882311F084E007C08091E30087FD9A
:1057100002C081E001C083E08093B1030E94612751
:105720008091E10083FF29C08091E20083FF25C0C2
:105730008091E100877F8093E10082E08093B10354
:105740001092AD038091E1008E7F8093E100809103
:10575000E2008E7F8093E2008091E200806180937E
:10576000E20042E060E080E00E94FB298091F000CE
:1057700088608093F0000E945F27FF91EF91BF91B6
:10578000AF919F918F917F916F915F914F913F91D9
:105790002F910F900FBE0F901F9018951F920F9290
:1057A0000FB60F9211242F933F934F935F936F93F4
:1057B0007F938F939F93AF93BF93CF93DF93EF9399
:1057C000FF93C091E900CF708091EC00D82FD17089
:1057D00080FDD0E81092E9008091F000877F8093EF
:1057E000F00078940E94122C1092E9008091F00051
:1057F00088608093F000CD2BCF70C093E900FF91BB
:10580000EF91DF91CF91BF91AF919F918F917F9158
:105810006F915F914F913F912F910F900FBE0F901D
:105820001F9018951F93CF93DF93CDB7DEB7AA973C
:105830000FB6F894DEBF0FBECDBFE2EBF3E088E019
:105840008E0F9091F10091938E13FBCF0E947727DA
:105850008091E80083FF28C18091B2039091B30347
:10586000492F50E04A30510508F01EC1FA01EE55AB
:10587000FF4F0C94F930803821F0823809F014C1C0
:1058800008C08091AE039091AF03992389F08260A4
:105890000FC08091B6038F70873008F005C18093E8
:1058A000E9008091EB0085FB882780F91092E900E0
:1058B0009091E800977F9093E8008093F100109218
:1058C000F100D0C0282F2D7F09F0EEC0882319F0F9
:1058D000823061F0E9C08091B403813009F0E4C006
:1058E000933009F080E08093AF032EC08091B40321
:1058F00081112AC08091B6038F702FEF280F2630B8
:1059000008F0D2C08093E9002091EB0020FF1CC07A
:10591000933021F48091EB00806214C09091EB00F1
:1059200090619093EB0021E030E0A90102C0440FA8
:10593000551F8A95E2F74093EA001092EA008091A1
:10594000EB0088608093EB001092E9008091E80002
:10595000877F8093E8000E94302AA6C08111A4C0EE
:105960001091B4031F778091E3008078812B80939E
:10597000E3008091E800877F8093E8000E94302A4E
:105980008091E80080FFFCCF8091E30080688093E5
:10599000E300111102C082E001C083E08093B103F3
:1059A00083C08058823008F07FC08091B40390910A
:1059B000B5038C3D53E0950779F583E08A838AE24D
:1059C00089834FB7F894DE01139620E03EE051E260
:1059D000E32FF0E050935700E49120FF03C0E295DD
:1059E000EF703F5FEF708E2F90E0EA3010F0C796B7
:1059F00001C0C0968D939D932F5F243149F74FBF0F
:105A00008091E800877F8093E8006AE270E0CE0131
:105A100001960E94372915C06091B6037091B703B3
:105A2000AE014F5F5F4F0E946628BC01892BE1F1F8
:105A30009091E800977F9093E80089819A810E9475
:105A40009A298091E8008B778093E8002DC08038F8
:105A500059F58091E800877F8093E8008091AD033D
:105A60008093F1008091E8008E7773CF81111CC084
:105A70009091B4039230C0F48091E800877F8093C6
:105A8000E8009093AD030E94302A8091AD0381110C
:105A900006C08091E30087FD02C081E001C084E080
:105AA0008093B1030E9463278091E80083FF0AC0BE
:105AB0008091E800877F8093E8008091EB0080620E
:105AC0008093EB00AA960FB6F894DEBF0FBECDBF51
:105AD000DF91CF911F9108950895CF938091B103E5
